{
  "contractName": "Nakama",
  "abi": [
    {
      "inputs": [],
      "stateMutability": "nonpayable",
      "type": "constructor"
    },
    {
      "anonymous": false,
      "inputs": [
        {
          "indexed": true,
          "internalType": "address",
          "name": "owner",
          "type": "address"
        },
        {
          "indexed": true,
          "internalType": "address",
          "name": "approved",
          "type": "address"
        },
        {
          "indexed": true,
          "internalType": "uint256",
          "name": "tokenId",
          "type": "uint256"
        }
      ],
      "name": "Approval",
      "type": "event"
    },
    {
      "anonymous": false,
      "inputs": [
        {
          "indexed": true,
          "internalType": "address",
          "name": "owner",
          "type": "address"
        },
        {
          "indexed": true,
          "internalType": "address",
          "name": "operator",
          "type": "address"
        },
        {
          "indexed": false,
          "internalType": "bool",
          "name": "approved",
          "type": "bool"
        }
      ],
      "name": "ApprovalForAll",
      "type": "event"
    },
    {
      "anonymous": false,
      "inputs": [
        {
          "indexed": true,
          "internalType": "address",
          "name": "from",
          "type": "address"
        },
        {
          "indexed": true,
          "internalType": "address",
          "name": "to",
          "type": "address"
        },
        {
          "indexed": true,
          "internalType": "uint256",
          "name": "tokenId",
          "type": "uint256"
        }
      ],
      "name": "Transfer",
      "type": "event"
    },
    {
      "inputs": [],
      "name": "SAY",
      "outputs": [
        {
          "internalType": "address payable",
          "name": "",
          "type": "address"
        }
      ],
      "stateMutability": "view",
      "type": "function",
      "constant": true
    },
    {
      "inputs": [
        {
          "internalType": "address",
          "name": "to",
          "type": "address"
        },
        {
          "internalType": "uint256",
          "name": "tokenId",
          "type": "uint256"
        }
      ],
      "name": "approve",
      "outputs": [],
      "stateMutability": "nonpayable",
      "type": "function"
    },
    {
      "inputs": [
        {
          "internalType": "address",
          "name": "owner",
          "type": "address"
        }
      ],
      "name": "balanceOf",
      "outputs": [
        {
          "internalType": "uint256",
          "name": "",
          "type": "uint256"
        }
      ],
      "stateMutability": "view",
      "type": "function",
      "constant": true
    },
    {
      "inputs": [],
      "name": "baseURI",
      "outputs": [
        {
          "internalType": "string",
          "name": "",
          "type": "string"
        }
      ],
      "stateMutability": "view",
      "type": "function",
      "constant": true
    },
    {
      "inputs": [
        {
          "internalType": "uint256",
          "name": "tokenId",
          "type": "uint256"
        }
      ],
      "name": "getApproved",
      "outputs": [
        {
          "internalType": "address",
          "name": "",
          "type": "address"
        }
      ],
      "stateMutability": "view",
      "type": "function",
      "constant": true
    },
    {
      "inputs": [
        {
          "internalType": "address",
          "name": "owner",
          "type": "address"
        },
        {
          "internalType": "address",
          "name": "operator",
          "type": "address"
        }
      ],
      "name": "isApprovedForAll",
      "outputs": [
        {
          "internalType": "bool",
          "name": "",
          "type": "bool"
        }
      ],
      "stateMutability": "view",
      "type": "function",
      "constant": true
    },
    {
      "inputs": [],
      "name": "name",
      "outputs": [
        {
          "internalType": "string",
          "name": "",
          "type": "string"
        }
      ],
      "stateMutability": "view",
      "type": "function",
      "constant": true
    },
    {
      "inputs": [
        {
          "internalType": "uint256",
          "name": "tokenId",
          "type": "uint256"
        }
      ],
      "name": "ownerOf",
      "outputs": [
        {
          "internalType": "address",
          "name": "",
          "type": "address"
        }
      ],
      "stateMutability": "view",
      "type": "function",
      "constant": true
    },
    {
      "inputs": [
        {
          "internalType": "address",
          "name": "from",
          "type": "address"
        },
        {
          "internalType": "address",
          "name": "to",
          "type": "address"
        },
        {
          "internalType": "uint256",
          "name": "tokenId",
          "type": "uint256"
        }
      ],
      "name": "safeTransferFrom",
      "outputs": [],
      "stateMutability": "nonpayable",
      "type": "function"
    },
    {
      "inputs": [
        {
          "internalType": "address",
          "name": "from",
          "type": "address"
        },
        {
          "internalType": "address",
          "name": "to",
          "type": "address"
        },
        {
          "internalType": "uint256",
          "name": "tokenId",
          "type": "uint256"
        },
        {
          "internalType": "bytes",
          "name": "_data",
          "type": "bytes"
        }
      ],
      "name": "safeTransferFrom",
      "outputs": [],
      "stateMutability": "nonpayable",
      "type": "function"
    },
    {
      "inputs": [
        {
          "internalType": "address",
          "name": "operator",
          "type": "address"
        },
        {
          "internalType": "bool",
          "name": "approved",
          "type": "bool"
        }
      ],
      "name": "setApprovalForAll",
      "outputs": [],
      "stateMutability": "nonpayable",
      "type": "function"
    },
    {
      "inputs": [
        {
          "internalType": "bytes4",
          "name": "interfaceId",
          "type": "bytes4"
        }
      ],
      "name": "supportsInterface",
      "outputs": [
        {
          "internalType": "bool",
          "name": "",
          "type": "bool"
        }
      ],
      "stateMutability": "view",
      "type": "function",
      "constant": true
    },
    {
      "inputs": [],
      "name": "symbol",
      "outputs": [
        {
          "internalType": "string",
          "name": "",
          "type": "string"
        }
      ],
      "stateMutability": "view",
      "type": "function",
      "constant": true
    },
    {
      "inputs": [
        {
          "internalType": "uint256",
          "name": "index",
          "type": "uint256"
        }
      ],
      "name": "tokenByIndex",
      "outputs": [
        {
          "internalType": "uint256",
          "name": "",
          "type": "uint256"
        }
      ],
      "stateMutability": "view",
      "type": "function",
      "constant": true
    },
    {
      "inputs": [
        {
          "internalType": "address",
          "name": "owner",
          "type": "address"
        },
        {
          "internalType": "uint256",
          "name": "index",
          "type": "uint256"
        }
      ],
      "name": "tokenOfOwnerByIndex",
      "outputs": [
        {
          "internalType": "uint256",
          "name": "",
          "type": "uint256"
        }
      ],
      "stateMutability": "view",
      "type": "function",
      "constant": true
    },
    {
      "inputs": [
        {
          "internalType": "uint256",
          "name": "tokenId",
          "type": "uint256"
        }
      ],
      "name": "tokenURI",
      "outputs": [
        {
          "internalType": "string",
          "name": "",
          "type": "string"
        }
      ],
      "stateMutability": "view",
      "type": "function",
      "constant": true
    },
    {
      "inputs": [],
      "name": "totalSupply",
      "outputs": [
        {
          "internalType": "uint256",
          "name": "",
          "type": "uint256"
        }
      ],
      "stateMutability": "view",
      "type": "function",
      "constant": true
    },
    {
      "inputs": [
        {
          "internalType": "address",
          "name": "from",
          "type": "address"
        },
        {
          "internalType": "address",
          "name": "to",
          "type": "address"
        },
        {
          "internalType": "uint256",
          "name": "tokenId",
          "type": "uint256"
        }
      ],
      "name": "transferFrom",
      "outputs": [],
      "stateMutability": "nonpayable",
      "type": "function"
    },
    {
      "inputs": [
        {
          "internalType": "address",
          "name": "account",
          "type": "address"
        },
        {
          "internalType": "string",
          "name": "need",
          "type": "string"
        }
      ],
      "name": "transferAmount",
      "outputs": [],
      "stateMutability": "payable",
      "type": "function",
      "payable": true
    },
    {
      "inputs": [
        {
          "internalType": "address",
          "name": "account",
          "type": "address"
        },
        {
          "internalType": "string",
          "name": "need",
          "type": "string"
        }
      ],
      "name": "awardToken",
      "outputs": [
        {
          "internalType": "uint256",
          "name": "",
          "type": "uint256"
        }
      ],
      "stateMutability": "payable",
      "type": "function",
      "payable": true
    }
  ],
  "bytecode": "0x60806040526040518060400160405280601781526020017f68747470733a2f2f736179646170702e636f6d70616e790000000000000000008152506011908051906020019062000051929190620002b0565b503480156200005f57600080fd5b506040518060400160405280600681526020017f4e616b616d6100000000000000000000000000000000000000000000000000008152506040518060400160405280600381526020017f4e414b0000000000000000000000000000000000000000000000000000000000815250620000e46301ffc9a760e01b620001a760201b60201c565b8160069080519060200190620000fc929190620002b0565b50806007908051906020019062000115929190620002b0565b506200012e6380ac58cd60e01b620001a760201b60201c565b62000146635b5e139f60e01b620001a760201b60201c565b6200015e63780e9d6360e01b620001a760201b60201c565b505033600b60006101000a81548173ffffffffffffffffffffffffffffffffffffffff021916908373ffffffffffffffffffffffffffffffffffffffff16021790555062000356565b63ffffffff60e01b817bffffffffffffffffffffffffffffffffffffffffffffffffffffffff1916141562000244576040517f08c379a000000000000000000000000000000000000000000000000000000000815260040180806020018281038252601c8152602001807f4552433136353a20696e76616c696420696e746572666163652069640000000081525060200191505060405180910390fd5b6001600080837bffffffffffffffffffffffffffffffffffffffffffffffffffffffff19167bffffffffffffffffffffffffffffffffffffffffffffffffffffffff1916815260200190815260200160002060006101000a81548160ff02191690831515021790555050565b828054600181600116156101000203166002900490600052602060002090601f016020900481019282601f10620002f357805160ff191683800117855562000324565b8280016001018555821562000324579182015b828111156200032357825182559160200191906001019062000306565b5b50905062000333919062000337565b5090565b5b808211156200035257600081600090555060010162000338565b5090565b6133f680620003666000396000f3fe60806040526004361061011f5760003560e01c80636352211e116100a0578063b88d4fde11610064578063b88d4fde146107f9578063c87b56dd1461090b578063e9792a26146109bf578063e985e9c514610a9a578063fc975b8114610b215761011f565b80636352211e146105b25780636c0360eb1461061757806370a08231146106a757806395d89b411461070c578063a22cb4651461079c5761011f565b806323b872dd116100e757806323b872dd1461030f5780632f745c591461038a57806342842e0e146103f95780634f6ccce71461047457806362068d60146104c35761011f565b806301ffc9a71461012457806306fdde0314610194578063081812fc14610224578063095ea7b31461028957806318160ddd146102e4575b600080fd5b34801561013057600080fd5b5061017c6004803603602081101561014757600080fd5b8101908080357bffffffffffffffffffffffffffffffffffffffffffffffffffffffff19169060200190929190505050610b62565b60405180821515815260200191505060405180910390f35b3480156101a057600080fd5b506101a9610bc9565b6040518080602001828103825283818151815260200191508051906020019080838360005b838110156101e95780820151818401526020810190506101ce565b50505050905090810190601f1680156102165780820380516001836020036101000a031916815260200191505b509250505060405180910390f35b34801561023057600080fd5b5061025d6004803603602081101561024757600080fd5b8101908080359060200190929190505050610c6b565b604051808273ffffffffffffffffffffffffffffffffffffffff16815260200191505060405180910390f35b34801561029557600080fd5b506102e2600480360360408110156102ac57600080fd5b81019080803573ffffffffffffffffffffffffffffffffffffffff16906020019092919080359060200190929190505050610d06565b005b3480156102f057600080fd5b506102f9610e4a565b6040518082815260200191505060405180910390f35b34801561031b57600080fd5b506103886004803603606081101561033257600080fd5b81019080803573ffffffffffffffffffffffffffffffffffffffff169060200190929190803573ffffffffffffffffffffffffffffffffffffffff16906020019092919080359060200190929190505050610e5b565b005b34801561039657600080fd5b506103e3600480360360408110156103ad57600080fd5b81019080803573ffffffffffffffffffffffffffffffffffffffff16906020019092919080359060200190929190505050610ed1565b6040518082815260200191505060405180910390f35b34801561040557600080fd5b506104726004803603606081101561041c57600080fd5b81019080803573ffffffffffffffffffffffffffffffffffffffff169060200190929190803573ffffffffffffffffffffffffffffffffffffffff16906020019092919080359060200190929190505050610f2c565b005b34801561048057600080fd5b506104ad6004803603602081101561049757600080fd5b8101908080359060200190929190505050610f4c565b6040518082815260200191505060405180910390f35b61059c600480360360408110156104d957600080fd5b81019080803573ffffffffffffffffffffffffffffffffffffffff1690602001909291908035906020019064010000000081111561051657600080fd5b82018360208201111561052857600080fd5b8035906020019184600183028401116401000000008311171561054a57600080fd5b91908080601f016020809104026020016040519081016040528093929190818152602001838380828437600081840152601f19601f820116905080830192505050505050509192919290505050610f6f565b6040518082815260200191505060405180910390f35b3480156105be57600080fd5b506105eb600480360360208110156105d557600080fd5b81019080803590602001909291905050506111b2565b604051808273ffffffffffffffffffffffffffffffffffffffff16815260200191505060405180910390f35b34801561062357600080fd5b5061062c6111e9565b6040518080602001828103825283818151815260200191508051906020019080838360005b8381101561066c578082015181840152602081019050610651565b50505050905090810190601f1680156106995780820380516001836020036101000a031916815260200191505b509250505060405180910390f35b3480156106b357600080fd5b506106f6600480360360208110156106ca57600080fd5b81019080803573ffffffffffffffffffffffffffffffffffffffff16906020019092919050505061128b565b6040518082815260200191505060405180910390f35b34801561071857600080fd5b50610721611360565b6040518080602001828103825283818151815260200191508051906020019080838360005b83811015610761578082015181840152602081019050610746565b50505050905090810190601f16801561078e5780820380516001836020036101000a031916815260200191505b509250505060405180910390f35b3480156107a857600080fd5b506107f7600480360360408110156107bf57600080fd5b81019080803573ffffffffffffffffffffffffffffffffffffffff169060200190929190803515159060200190929190505050611402565b005b34801561080557600080fd5b506109096004803603608081101561081c57600080fd5b81019080803573ffffffffffffffffffffffffffffffffffffffff169060200190929190803573ffffffffffffffffffffffffffffffffffffffff169060200190929190803590602001909291908035906020019064010000000081111561088357600080fd5b82018360208201111561089557600080fd5b803590602001918460018302840111640100000000831117156108b757600080fd5b91908080601f016020809104026020016040519081016040528093929190818152602001838380828437600081840152601f19601f8201169050808301925050505050505091929192905050506115b8565b005b34801561091757600080fd5b506109446004803603602081101561092e57600080fd5b8101908080359060200190929190505050611630565b6040518080602001828103825283818151815260200191508051906020019080838360005b83811015610984578082015181840152602081019050610969565b50505050905090810190601f1680156109b15780820380516001836020036101000a031916815260200191505b509250505060405180910390f35b610a98600480360360408110156109d557600080fd5b81019080803573ffffffffffffffffffffffffffffffffffffffff16906020019092919080359060200190640100000000811115610a1257600080fd5b820183602082011115610a2457600080fd5b80359060200191846001830284011164010000000083111715610a4657600080fd5b91908080601f016020809104026020016040519081016040528093929190818152602001838380828437600081840152601f19601f820116905080830192505050505050509192919290505050611919565b005b348015610aa657600080fd5b50610b0960048036036040811015610abd57600080fd5b81019080803573ffffffffffffffffffffffffffffffffffffffff169060200190929190803573ffffffffffffffffffffffffffffffffffffffff169060200190929190505050611a79565b60405180821515815260200191505060405180910390f35b348015610b2d57600080fd5b50610b36611b0d565b604051808273ffffffffffffffffffffffffffffffffffffffff16815260200191505060405180910390f35b6000806000837bffffffffffffffffffffffffffffffffffffffffffffffffffffffff19167bffffffffffffffffffffffffffffffffffffffffffffffffffffffff1916815260200190815260200160002060009054906101000a900460ff169050919050565b606060068054600181600116156101000203166002900480601f016020809104026020016040519081016040528092919081815260200182805460018160011615610100020316600290048015610c615780601f10610c3657610100808354040283529160200191610c61565b820191906000526020600020905b815481529060010190602001808311610c4457829003601f168201915b5050505050905090565b6000610c7682611b33565b610ccb576040517f08c379a000000000000000000000000000000000000000000000000000000000815260040180806020018281038252602c8152602001806132bf602c913960400191505060405180910390fd5b6004600083815260200190815260200160002060009054906101000a900473ffffffffffffffffffffffffffffffffffffffff169050919050565b6000610d11826111b2565b90508073ffffffffffffffffffffffffffffffffffffffff168373ffffffffffffffffffffffffffffffffffffffff161415610d98576040517f08c379a000000000000000000000000000000000000000000000000000000000815260040180806020018281038252602181526020018061336f6021913960400191505060405180910390fd5b8073ffffffffffffffffffffffffffffffffffffffff16610db7611b50565b73ffffffffffffffffffffffffffffffffffffffff161480610de65750610de581610de0611b50565b611a79565b5b610e3b576040517f08c379a00000000000000000000000000000000000000000000000000000000081526004018080602001828103825260388152602001806132126038913960400191505060405180910390fd5b610e458383611b58565b505050565b6000610e566002611c11565b905090565b610e6c610e66611b50565b82611c26565b610ec1576040517f08c379a00000000000000000000000000000000000000000000000000000000081526004018080602001828103825260318152602001806133906031913960400191505060405180910390fd5b610ecc838383611d1a565b505050565b6000610f2482600160008673ffffffffffffffffffffffffffffffffffffffff1673ffffffffffffffffffffffffffffffffffffffff168152602001908152602001600020611f5d90919063ffffffff16565b905092915050565b610f47838383604051806020016040528060008152506115b8565b505050565b600080610f63836002611f7790919063ffffffff16565b50905080915050919050565b6000655af3107a40003411610f8357600080fd5b600e826040518082805190602001908083835b60208310610fb95780518252602082019150602081019050602083039250610f96565b6001836020036101000a038019825116818451168082178552505050505050905001915050908152602001604051809103902060009054906101000a900460ff161561100457600080fd5b600d60008473ffffffffffffffffffffffffffffffffffffffff1673ffffffffffffffffffffffffffffffffffffffff16815260200190815260200160002060009054906101000a900460ff161561105b57600080fd5b611065600a611fa3565b6000611071600a611fb9565b905061107d8482611fc7565b6110878184611fe5565b61112a60118054600181600116156101000203166002900480601f0160208091040260200160405190810160405280929190818152602001828054600181600116156101000203166002900480156111205780601f106110f557610100808354040283529160200191611120565b820191906000526020600020905b81548152906001019060200180831161110357829003601f168201915b505050505061206f565b6111348185612089565b5061113f848461218c565b600b60009054906101000a900473ffffffffffffffffffffffffffffffffffffffff1673ffffffffffffffffffffffffffffffffffffffff166108fc349081150290604051600060405180830381858888f193505050501580156111a7573d6000803e3d6000fd5b508091505092915050565b60006111e2826040518060600160405280602981526020016132746029913960026122fe9092919063ffffffff16565b9050919050565b606060098054600181600116156101000203166002900480601f0160208091040260200160405190810160405280929190818152602001828054600181600116156101000203166002900480156112815780601f1061125657610100808354040283529160200191611281565b820191906000526020600020905b81548152906001019060200180831161126457829003601f168201915b5050505050905090565b60008073ffffffffffffffffffffffffffffffffffffffff168273ffffffffffffffffffffffffffffffffffffffff161415611312576040517f08c379a000000000000000000000000000000000000000000000000000000000815260040180806020018281038252602a81526020018061324a602a913960400191505060405180910390fd5b611359600160008473ffffffffffffffffffffffffffffffffffffffff1673ffffffffffffffffffffffffffffffffffffffff16815260200190815260200160002061231d565b9050919050565b606060078054600181600116156101000203166002900480601f0160208091040260200160405190810160405280929190818152602001828054600181600116156101000203166002900480156113f85780601f106113cd576101008083540402835291602001916113f8565b820191906000526020600020905b8154815290600101906020018083116113db57829003601f168201915b5050505050905090565b61140a611b50565b73ffffffffffffffffffffffffffffffffffffffff168273ffffffffffffffffffffffffffffffffffffffff1614156114ab576040517f08c379a00000000000000000000000000000000000000000000000000000000081526004018080602001828103825260198152602001807f4552433732313a20617070726f766520746f2063616c6c65720000000000000081525060200191505060405180910390fd5b80600560006114b8611b50565b73ffffffffffffffffffffffffffffffffffffffff1673ffffffffffffffffffffffffffffffffffffffff16815260200190815260200160002060008473ffffffffffffffffffffffffffffffffffffffff1673ffffffffffffffffffffffffffffffffffffffff16815260200190815260200160002060006101000a81548160ff0219169083151502179055508173ffffffffffffffffffffffffffffffffffffffff16611565611b50565b73ffffffffffffffffffffffffffffffffffffffff167f17307eab39ab6107e8899845ad3d59bd9653f200f220920489ca2b5937696c318360405180821515815260200191505060405180910390a35050565b6115c96115c3611b50565b83611c26565b61161e576040517f08c379a00000000000000000000000000000000000000000000000000000000081526004018080602001828103825260318152602001806133906031913960400191505060405180910390fd5b61162a84848484612332565b50505050565b606061163b82611b33565b611690576040517f08c379a000000000000000000000000000000000000000000000000000000000815260040180806020018281038252602f815260200180613340602f913960400191505060405180910390fd5b6060600860008481526020019081526020016000208054600181600116156101000203166002900480601f0160208091040260200160405190810160405280929190818152602001828054600181600116156101000203166002900480156117395780601f1061170e57610100808354040283529160200191611739565b820191906000526020600020905b81548152906001019060200180831161171c57829003601f168201915b505050505090506000600980546001816001161561010002031660029004905014156117685780915050611914565b6000815111156118415760098160405160200180838054600181600116156101000203166002900480156117d35780601f106117b15761010080835404028352918201916117d3565b820191906000526020600020905b8154815290600101906020018083116117bf575b505082805190602001908083835b6020831061180457805182526020820191506020810190506020830392506117e1565b6001836020036101000a03801982511681845116808217855250505050505090500192505050604051602081830303815290604052915050611914565b600961184c846123a4565b60405160200180838054600181600116156101000203166002900480156118aa5780601f106118885761010080835404028352918201916118aa565b820191906000526020600020905b815481529060010190602001808311611896575b505082805190602001908083835b602083106118db57805182526020820191506020810190506020830392506118b8565b6001836020036101000a038019825116818451168082178552505050505050905001925050506040516020818303038152906040529150505b919050565b655af3107a4000341161192b57600080fd5b600e816040518082805190602001908083835b60208310611961578051825260208201915060208101905060208303925061193e565b6001836020036101000a038019825116818451168082178552505050505050905001915050908152602001604051809103902060009054906101000a900460ff16156119ac57600080fd5b600d60008373ffffffffffffffffffffffffffffffffffffffff1673ffffffffffffffffffffffffffffffffffffffff16815260200190815260200160002060009054906101000a900460ff16611a0257600080fd5b611a0c828261218c565b600b60009054906101000a900473ffffffffffffffffffffffffffffffffffffffff1673ffffffffffffffffffffffffffffffffffffffff166108fc349081150290604051600060405180830381858888f19350505050158015611a74573d6000803e3d6000fd5b505050565b6000600560008473ffffffffffffffffffffffffffffffffffffffff1673ffffffffffffffffffffffffffffffffffffffff16815260200190815260200160002060008373ffffffffffffffffffffffffffffffffffffffff1673ffffffffffffffffffffffffffffffffffffffff16815260200190815260200160002060009054906101000a900460ff16905092915050565b600b60009054906101000a900473ffffffffffffffffffffffffffffffffffffffff1681565b6000611b498260026124eb90919063ffffffff16565b9050919050565b600033905090565b816004600083815260200190815260200160002060006101000a81548173ffffffffffffffffffffffffffffffffffffffff021916908373ffffffffffffffffffffffffffffffffffffffff160217905550808273ffffffffffffffffffffffffffffffffffffffff16611bcb836111b2565b73ffffffffffffffffffffffffffffffffffffffff167f8c5be1e5ebec7d5bd14f71427d1e84f3dd0314c0f7b2291e5b200ac8c7c3b92560405160405180910390a45050565b6000611c1f82600001612505565b9050919050565b6000611c3182611b33565b611c86576040517f08c379a000000000000000000000000000000000000000000000000000000000815260040180806020018281038252602c8152602001806131e6602c913960400191505060405180910390fd5b6000611c91836111b2565b90508073ffffffffffffffffffffffffffffffffffffffff168473ffffffffffffffffffffffffffffffffffffffff161480611d0057508373ffffffffffffffffffffffffffffffffffffffff16611ce884610c6b565b73ffffffffffffffffffffffffffffffffffffffff16145b80611d115750611d108185611a79565b5b91505092915050565b8273ffffffffffffffffffffffffffffffffffffffff16611d3a826111b2565b73ffffffffffffffffffffffffffffffffffffffff1614611da6576040517f08c379a00000000000000000000000000000000000000000000000000000000081526004018080602001828103825260298152602001806133176029913960400191505060405180910390fd5b600073ffffffffffffffffffffffffffffffffffffffff168273ffffffffffffffffffffffffffffffffffffffff161415611e2c576040517f08c379a00000000000000000000000000000000000000000000000000000000081526004018080602001828103825260248152602001806131c26024913960400191505060405180910390fd5b611e37838383612516565b611e42600082611b58565b611e9381600160008673ffffffffffffffffffffffffffffffffffffffff1673ffffffffffffffffffffffffffffffffffffffff16815260200190815260200160002061251b90919063ffffffff16565b50611ee581600160008573ffffffffffffffffffffffffffffffffffffffff1673ffffffffffffffffffffffffffffffffffffffff16815260200190815260200160002061253590919063ffffffff16565b50611efc8183600261254f9092919063ffffffff16565b50808273ffffffffffffffffffffffffffffffffffffffff168473ffffffffffffffffffffffffffffffffffffffff167fddf252ad1be2c89b69c2b068fc378daa952ba7f163c4a11628f55a4df523b3ef60405160405180910390a4505050565b6000611f6c8360000183612584565b60001c905092915050565b600080600080611f8a8660000186612607565b915091508160001c8160001c9350935050509250929050565b6001816000016000828254019250508190555050565b600081600001549050919050565b611fe18282604051806020016040528060008152506126a0565b5050565b611fee82611b33565b612043576040517f08c379a000000000000000000000000000000000000000000000000000000000815260040180806020018281038252602c8152602001806132eb602c913960400191505060405180910390fd5b8060086000848152602001908152602001600020908051906020019061206a9291906130d0565b505050565b80600990805190602001906120859291906130d0565b5050565b6000600f60008154809291906001019190505590506000600c60008473ffffffffffffffffffffffffffffffffffffffff1673ffffffffffffffffffffffffffffffffffffffff1681526020019081526020016000209050838160000181905550828160010160006101000a81548173ffffffffffffffffffffffffffffffffffffffff021916908373ffffffffffffffffffffffffffffffffffffffff1602179055506001600d60008573ffffffffffffffffffffffffffffffffffffffff1673ffffffffffffffffffffffffffffffffffffffff16815260200190815260200160002060006101000a81548160ff0219169083151502179055505092915050565b6000600c60008473ffffffffffffffffffffffffffffffffffffffff1673ffffffffffffffffffffffffffffffffffffffff16815260200190815260200160002090506001600e836040518082805190602001908083835b6020831061220757805182526020820191506020810190506020830392506121e4565b6001836020036101000a038019825116818451168082178552505050505050905001915050908152602001604051809103902060006101000a81548160ff021916908315150217905550600181600301836040518082805190602001908083835b6020831061228b5780518252602082019150602081019050602083039250612268565b6001836020036101000a038019825116818451168082178552505050505050905001915050908152602001604051809103902060006101000a81548160ff021916908315150217905550601060008154809291906001019190505550348160020160008282540192505081905550505050565b6000612311846000018460001b84612711565b60001c90509392505050565b600061232b82600001612807565b9050919050565b61233d848484611d1a565b61234984848484612818565b61239e576040517f08c379a00000000000000000000000000000000000000000000000000000000081526004018080602001828103825260328152602001806131906032913960400191505060405180910390fd5b50505050565b606060008214156123ec576040518060400160405280600181526020017f300000000000000000000000000000000000000000000000000000000000000081525090506124e6565b600082905060005b60008214612416578080600101915050600a828161240e57fe5b0491506123f4565b60608167ffffffffffffffff8111801561242f57600080fd5b506040519080825280601f01601f1916602001820160405280156124625781602001600182028036833780820191505090505b50905060006001830390508593505b600084146124de57600a848161248357fe5b0660300160f81b8282806001900393508151811061249d57fe5b60200101907effffffffffffffffffffffffffffffffffffffffffffffffffffffffffffff1916908160001a905350600a84816124d657fe5b049350612471565b819450505050505b919050565b60006124fd836000018360001b612a31565b905092915050565b600081600001805490509050919050565b505050565b600061252d836000018360001b612a54565b905092915050565b6000612547836000018360001b612b3c565b905092915050565b600061257b846000018460001b8473ffffffffffffffffffffffffffffffffffffffff1660001b612bac565b90509392505050565b6000818360000180549050116125e5576040517f08c379a000000000000000000000000000000000000000000000000000000000815260040180806020018281038252602281526020018061316e6022913960400191505060405180910390fd5b8260000182815481106125f457fe5b9060005260206000200154905092915050565b60008082846000018054905011612669576040517f08c379a000000000000000000000000000000000000000000000000000000000815260040180806020018281038252602281526020018061329d6022913960400191505060405180910390fd5b600084600001848154811061267a57fe5b906000526020600020906002020190508060000154816001015492509250509250929050565b6126aa8383612c88565b6126b76000848484612818565b61270c576040517f08c379a00000000000000000000000000000000000000000000000000000000081526004018080602001828103825260328152602001806131906032913960400191505060405180910390fd5b505050565b600080846001016000858152602001908152602001600020549050600081141583906127d8576040517f08c379a00000000000000000000000000000000000000000000000000000000081526004018080602001828103825283818151815260200191508051906020019080838360005b8381101561279d578082015181840152602081019050612782565b50505050905090810190601f1680156127ca5780820380516001836020036101000a031916815260200191505b509250505060405180910390fd5b508460000160018203815481106127eb57fe5b9060005260206000209060020201600101549150509392505050565b600081600001805490509050919050565b60006128398473ffffffffffffffffffffffffffffffffffffffff16612e7c565b6128465760019050612a29565b60606129b063150b7a0260e01b61285b611b50565b888787604051602401808573ffffffffffffffffffffffffffffffffffffffff1681526020018473ffffffffffffffffffffffffffffffffffffffff16815260200183815260200180602001828103825283818151815260200191508051906020019080838360005b838110156128df5780820151818401526020810190506128c4565b50505050905090810190601f16801561290c5780820380516001836020036101000a031916815260200191505b5095505050505050604051602081830303815290604052907bffffffffffffffffffffffffffffffffffffffffffffffffffffffff19166020820180517bffffffffffffffffffffffffffffffffffffffffffffffffffffffff8381831617835250505050604051806060016040528060328152602001613190603291398773ffffffffffffffffffffffffffffffffffffffff16612e8f9092919063ffffffff16565b905060008180602001905160208110156129c957600080fd5b8101908080519060200190929190505050905063150b7a0260e01b7bffffffffffffffffffffffffffffffffffffffffffffffffffffffff1916817bffffffffffffffffffffffffffffffffffffffffffffffffffffffff191614925050505b949350505050565b600080836001016000848152602001908152602001600020541415905092915050565b60008083600101600084815260200190815260200160002054905060008114612b305760006001820390506000600186600001805490500390506000866000018281548110612a9f57fe5b9060005260206000200154905080876000018481548110612abc57fe5b9060005260206000200181905550600183018760010160008381526020019081526020016000208190555086600001805480612af457fe5b60019003818190600052602060002001600090559055866001016000878152602001908152602001600020600090556001945050505050612b36565b60009150505b92915050565b6000612b488383612ea7565b612ba1578260000182908060018154018082558091505060019003906000526020600020016000909190919091505582600001805490508360010160008481526020019081526020016000208190555060019050612ba6565b600090505b92915050565b6000808460010160008581526020019081526020016000205490506000811415612c5357846000016040518060400160405280868152602001858152509080600181540180825580915050600190039060005260206000209060020201600090919091909150600082015181600001556020820151816001015550508460000180549050856001016000868152602001908152602001600020819055506001915050612c81565b82856000016001830381548110612c6657fe5b90600052602060002090600202016001018190555060009150505b9392505050565b600073ffffffffffffffffffffffffffffffffffffffff168273ffffffffffffffffffffffffffffffffffffffff161415612d2b576040517f08c379a00000000000000000000000000000000000000000000000000000000081526004018080602001828103825260208152602001807f4552433732313a206d696e7420746f20746865207a65726f206164647265737381525060200191505060405180910390fd5b612d3481611b33565b15612da7576040517f08c379a000000000000000000000000000000000000000000000000000000000815260040180806020018281038252601c8152602001807f4552433732313a20746f6b656e20616c7265616479206d696e7465640000000081525060200191505060405180910390fd5b612db360008383612516565b612e0481600160008573ffffffffffffffffffffffffffffffffffffffff1673ffffffffffffffffffffffffffffffffffffffff16815260200190815260200160002061253590919063ffffffff16565b50612e1b8183600261254f9092919063ffffffff16565b50808273ffffffffffffffffffffffffffffffffffffffff16600073ffffffffffffffffffffffffffffffffffffffff167fddf252ad1be2c89b69c2b068fc378daa952ba7f163c4a11628f55a4df523b3ef60405160405180910390a45050565b600080823b905060008111915050919050565b6060612e9e8484600085612eca565b90509392505050565b600080836001016000848152602001908152602001600020541415905092915050565b6060612ed585612e7c565b612f47576040517f08c379a000000000000000000000000000000000000000000000000000000000815260040180806020018281038252601d8152602001807f416464726573733a2063616c6c20746f206e6f6e2d636f6e747261637400000081525060200191505060405180910390fd5b600060608673ffffffffffffffffffffffffffffffffffffffff1685876040518082805190602001908083835b60208310612f975780518252602082019150602081019050602083039250612f74565b6001836020036101000a03801982511681845116808217855250505050505090500191505060006040518083038185875af1925050503d8060008114612ff9576040519150601f19603f3d011682016040523d82523d6000602084013e612ffe565b606091505b509150915081156130135780925050506130c8565b6000815111156130265780518082602001fd5b836040517f08c379a00000000000000000000000000000000000000000000000000000000081526004018080602001828103825283818151815260200191508051906020019080838360005b8381101561308d578082015181840152602081019050613072565b50505050905090810190601f1680156130ba5780820380516001836020036101000a031916815260200191505b509250505060405180910390fd5b949350505050565b828054600181600116156101000203166002900490600052602060002090601f016020900481019282601f1061311157805160ff191683800117855561313f565b8280016001018555821561313f579182015b8281111561313e578251825591602001919060010190613123565b5b50905061314c9190613150565b5090565b5b80821115613169576000816000905550600101613151565b509056fe456e756d657261626c655365743a20696e646578206f7574206f6620626f756e64734552433732313a207472616e7366657220746f206e6f6e20455243373231526563656976657220696d706c656d656e7465724552433732313a207472616e7366657220746f20746865207a65726f20616464726573734552433732313a206f70657261746f7220717565727920666f72206e6f6e6578697374656e7420746f6b656e4552433732313a20617070726f76652063616c6c6572206973206e6f74206f776e6572206e6f7220617070726f76656420666f7220616c6c4552433732313a2062616c616e636520717565727920666f7220746865207a65726f20616464726573734552433732313a206f776e657220717565727920666f72206e6f6e6578697374656e7420746f6b656e456e756d657261626c654d61703a20696e646578206f7574206f6620626f756e64734552433732313a20617070726f76656420717565727920666f72206e6f6e6578697374656e7420746f6b656e4552433732314d657461646174613a2055524920736574206f66206e6f6e6578697374656e7420746f6b656e4552433732313a207472616e73666572206f6620746f6b656e2074686174206973206e6f74206f776e4552433732314d657461646174613a2055524920717565727920666f72206e6f6e6578697374656e7420746f6b656e4552433732313a20617070726f76616c20746f2063757272656e74206f776e65724552433732313a207472616e736665722063616c6c6572206973206e6f74206f776e6572206e6f7220617070726f766564a264697066735822122047b348357a9e926e5d8b15fd42774a32082f94a56bb10cec91389df52bb5b55864736f6c634300060c0033",
  "immutableReferences": {},
  "source": "// contracts/GameItem.sol\r\n// SPDX-License-Identifier: MIT\r\npragma solidity ^0.6.0;\r\n\r\nimport \"@openzeppelin/contracts/token/ERC721/ERC721.sol\";\r\nimport \"@openzeppelin/contracts/utils/Counters.sol\";\r\n\r\ncontract Nakama is ERC721 {\r\n    using Counters for Counters.Counter;\r\n    Counters.Counter private _tokenIds;\r\n//    every donor has an address, a newTokenId and multiple done needs\r\n    struct Donor {\r\n        uint256 newTokenId;\r\n        address account;\r\n        uint256 donation;\r\n        mapping(string => bool) doneNeeds;\r\n    }\r\n    address payable public  SAY ;\r\n    mapping(address => Donor) donors;\r\n//    \"require\" needs to be mapped to a bool\r\n    mapping(address => bool) allDonors;\r\n    mapping(string => bool) allDoneNeeds;\r\n    uint256 numDonors;\r\n    uint256 numDoneNeeds;\r\n    string baseURI_= \"https://saydapp.company\";\r\n\r\n    constructor() public ERC721(\"Nakama\", \"NAK\")  {\r\n        SAY = msg.sender;\r\n    }\r\n\r\n    function newDonor(uint256 newTokenId , address account) private returns (uint donorID) {\r\n        donorID = numDonors++;\r\n        // We cannot use \"donors[account] = Donor(newTokenId, account, 0)\"\r\n        Donor storage d = donors[account];\r\n        d.newTokenId = newTokenId;\r\n        d.account = account;\r\n        allDonors[account] = true;\r\n    }\r\n\r\n    function completedNeed (address account, string memory need) private {\r\n        Donor storage d = donors[account];\r\n        allDoneNeeds[need] = true;\r\n        d.doneNeeds[need] = true;\r\n        numDoneNeeds++;\r\n\r\n        d.donation += msg.value;\r\n    }\r\n\r\n    function transferAmount(address account, string memory need) public payable{\r\n        require(msg.value > 0.0001 ether);\r\n        require(!allDoneNeeds[need]);\r\n        require(allDonors[account]);\r\n        completedNeed(account, need);\r\n        SAY.transfer(msg.value);\r\n    }\r\n\r\n    function awardToken(address account, string memory need) payable public returns (uint256) {\r\n        //  to avoid creating newTokenId with 0 value\r\n        require(msg.value > 0.0001 ether);\r\n        require(!allDoneNeeds[need]);\r\n        require(!allDonors[account]);\r\n        _tokenIds.increment();\r\n        //  if address already has a _tokenId do not mint\r\n\r\n        uint256 newTokenId = _tokenIds.current();\r\n        //  Mints tokenId and transfers it to to.\r\n        _safeMint(account, newTokenId);\r\n        //  Sets _tokenURI as a unique id.\r\n        _setTokenURI(newTokenId, need);\r\n        // Internal function to set the base URI for all token IDs\r\n        _setBaseURI(baseURI_);\r\n        //  stores the donor\r\n        newDonor(newTokenId, account);\r\n        completedNeed(account, need);\r\n        //  transfer the money to SAY\r\n        SAY.transfer(msg.value);\r\n    return newTokenId;\r\n    }\r\n}",
  "sourcePath": "C:/Users/SC/Documents/SAY-DAO/landing-page/contracts/Nakama.sol",
  "compiler": {
    "name": "solc",
    "version": "0.6.12+commit.27d51765.Emscripten.clang"
  },
  "schemaVersion": "3.3.0",
  "updatedAt": "2020-11-07T23:28:22.225Z",
  "networkType": "ethereum",
  "devdoc": {
    "kind": "dev",
    "methods": {
      "approve(address,uint256)": {
        "details": "See {IERC721-approve}."
      },
      "balanceOf(address)": {
        "details": "See {IERC721-balanceOf}."
      },
      "baseURI()": {
        "details": "Returns the base URI set via {_setBaseURI}. This will be automatically added as a prefix in {tokenURI} to each token's URI, or to the token ID if no specific URI is set for that token ID."
      },
      "getApproved(uint256)": {
        "details": "See {IERC721-getApproved}."
      },
      "isApprovedForAll(address,address)": {
        "details": "See {IERC721-isApprovedForAll}."
      },
      "name()": {
        "details": "See {IERC721Metadata-name}."
      },
      "ownerOf(uint256)": {
        "details": "See {IERC721-ownerOf}."
      },
      "safeTransferFrom(address,address,uint256)": {
        "details": "See {IERC721-safeTransferFrom}."
      },
      "safeTransferFrom(address,address,uint256,bytes)": {
        "details": "See {IERC721-safeTransferFrom}."
      },
      "setApprovalForAll(address,bool)": {
        "details": "See {IERC721-setApprovalForAll}."
      },
      "supportsInterface(bytes4)": {
        "details": "See {IERC165-supportsInterface}. Time complexity O(1), guaranteed to always use less than 30 000 gas."
      },
      "symbol()": {
        "details": "See {IERC721Metadata-symbol}."
      },
      "tokenByIndex(uint256)": {
        "details": "See {IERC721Enumerable-tokenByIndex}."
      },
      "tokenOfOwnerByIndex(address,uint256)": {
        "details": "See {IERC721Enumerable-tokenOfOwnerByIndex}."
      },
      "tokenURI(uint256)": {
        "details": "See {IERC721Metadata-tokenURI}."
      },
      "totalSupply()": {
        "details": "See {IERC721Enumerable-totalSupply}."
      },
      "transferFrom(address,address,uint256)": {
        "details": "See {IERC721-transferFrom}."
      }
    },
    "version": 1
  },
  "userdoc": {
    "kind": "user",
    "methods": {},
    "version": 1
  }
}