{
  "contractName": "TransferERC20",
  "abi": [
    {
      "inputs": [],
      "stateMutability": "nonpayable",
      "type": "constructor"
    },
    {
      "inputs": [
        {
          "internalType": "uint256",
          "name": "",
          "type": "uint256"
        }
      ],
      "name": "donors",
      "outputs": [
        {
          "internalType": "address",
          "name": "",
          "type": "address"
        }
      ],
      "stateMutability": "view",
      "type": "function"
    },
    {
      "inputs": [],
      "name": "owner",
      "outputs": [
        {
          "internalType": "address payable",
          "name": "",
          "type": "address"
        }
      ],
      "stateMutability": "view",
      "type": "function"
    },
    {
      "inputs": [
        {
          "internalType": "uint256",
          "name": "needEthCost",
          "type": "uint256"
        }
      ],
      "name": "awardItem",
      "outputs": [],
      "stateMutability": "payable",
      "type": "function"
    }
  ],
  "bytecode": "0x608060405234801561001057600080fd5b50336000806101000a81548173ffffffffffffffffffffffffffffffffffffffff021916908373ffffffffffffffffffffffffffffffffffffffff160217905550610276806100606000396000f3fe6080604052600436106100345760003560e01c806312dc1fb3146100395780634abfa163146100675780638da5cb5b146100cc575b600080fd5b6100656004803603602081101561004f57600080fd5b810190808035906020019092919050505061010d565b005b34801561007357600080fd5b506100a06004803603602081101561008a57600080fd5b81019080803590602001909291905050506101e0565b604051808273ffffffffffffffffffffffffffffffffffffffff16815260200191505060405180910390f35b3480156100d857600080fd5b506100e161021c565b604051808273ffffffffffffffffffffffffffffffffffffffff16815260200191505060405180910390f35b80341161011957600080fd5b6001339080600181540180825580915050600190039060005260206000200160009091909190916101000a81548173ffffffffffffffffffffffffffffffffffffffff021916908373ffffffffffffffffffffffffffffffffffffffff160217905550600073dd870fa1b7c4700f2bd7f44238821c26f739214890508073ffffffffffffffffffffffffffffffffffffffff166108fc479081150290604051600060405180830381858888f193505050501580156101db573d6000803e3d6000fd5b505050565b600181815481106101ed57fe5b906000526020600020016000915054906101000a900473ffffffffffffffffffffffffffffffffffffffff1681565b60008054906101000a900473ffffffffffffffffffffffffffffffffffffffff168156fea2646970667358221220e7f1b5c6f972d5f5afbb9c7af56018bc4a514c8c56d1db07f787bd49c52bdaf564736f6c634300060c0033",
  "immutableReferences": {},
  "source": "// contracts/GameItem.sol\r\n// SPDX-License-Identifier: MIT\r\npragma solidity ^0.6.0;\r\n\r\ncontract TransferERC20 {\r\n    address payable public  owner ;\r\n    address[] public donors;\r\n\r\n    constructor () public {\r\n        owner = msg.sender;\r\n    }\r\n\r\n\r\n    function awardItem(uint needEthCost) payable public{\r\n        require(msg.value > needEthCost );\r\n        donors.push(msg.sender);\r\n        address payable myAccount = 0xdD870fA1b7C4700F2BD7f44238821C26f7392148;\r\n        myAccount.transfer(address(this).balance);\r\n    }\r\n}",
  "sourcePath": "C:/Users/SC/Documents/SAY-DAO/landing-page/contracts/TransferERC20.sol",
  "compiler": {
    "name": "solc",
    "version": "0.6.12+commit.27d51765.Emscripten.clang"
  },
  "schemaVersion": "3.3.0",
  "updatedAt": "2020-10-28T18:17:14.230Z",
  "devdoc": {
    "kind": "dev",
    "methods": {},
    "version": 1
  },
  "userdoc": {
    "kind": "user",
    "methods": {},
    "version": 1
  }
}